{
  "contractName": "freelancer",
  "abi": [
    {
      "constant": true,
      "inputs": [],
      "name": "workCount",
      "outputs": [
        {
          "name": "",
          "type": "uint256"
        }
      ],
      "payable": false,
      "stateMutability": "view",
      "type": "function"
    },
    {
      "constant": true,
      "inputs": [
        {
          "name": "",
          "type": "uint256"
        }
      ],
      "name": "bids",
      "outputs": [
        {
          "name": "checkid",
          "type": "uint256"
        },
        {
          "name": "bid_id",
          "type": "uint256"
        },
        {
          "name": "name",
          "type": "string"
        },
        {
          "name": "message",
          "type": "string"
        },
        {
          "name": "time",
          "type": "uint256"
        },
        {
          "name": "price",
          "type": "uint256"
        },
        {
          "name": "bidder",
          "type": "address"
        }
      ],
      "payable": false,
      "stateMutability": "view",
      "type": "function"
    },
    {
      "constant": true,
      "inputs": [
        {
          "name": "",
          "type": "uint256"
        }
      ],
      "name": "links",
      "outputs": [
        {
          "name": "checkid",
          "type": "uint256"
        },
        {
          "name": "bid_id",
          "type": "uint256"
        },
        {
          "name": "name",
          "type": "string"
        },
        {
          "name": "message",
          "type": "string"
        },
        {
          "name": "time",
          "type": "uint256"
        },
        {
          "name": "price",
          "type": "uint256"
        },
        {
          "name": "bidder",
          "type": "address"
        }
      ],
      "payable": false,
      "stateMutability": "view",
      "type": "function"
    },
    {
      "constant": true,
      "inputs": [],
      "name": "linkCount",
      "outputs": [
        {
          "name": "",
          "type": "uint256"
        }
      ],
      "payable": false,
      "stateMutability": "view",
      "type": "function"
    },
    {
      "constant": true,
      "inputs": [],
      "name": "bidCount",
      "outputs": [
        {
          "name": "",
          "type": "uint256"
        }
      ],
      "payable": false,
      "stateMutability": "view",
      "type": "function"
    },
    {
      "constant": true,
      "inputs": [
        {
          "name": "",
          "type": "uint256"
        }
      ],
      "name": "works",
      "outputs": [
        {
          "name": "id",
          "type": "uint256"
        },
        {
          "name": "name",
          "type": "string"
        },
        {
          "name": "des",
          "type": "string"
        },
        {
          "name": "owner",
          "type": "address"
        },
        {
          "name": "purchased",
          "type": "bool"
        }
      ],
      "payable": false,
      "stateMutability": "view",
      "type": "function"
    },
    {
      "anonymous": false,
      "inputs": [
        {
          "indexed": false,
          "name": "id",
          "type": "uint256"
        },
        {
          "indexed": false,
          "name": "name",
          "type": "string"
        },
        {
          "indexed": false,
          "name": "des",
          "type": "string"
        },
        {
          "indexed": false,
          "name": "owner",
          "type": "address"
        },
        {
          "indexed": false,
          "name": "purchased",
          "type": "bool"
        }
      ],
      "name": "workCreated",
      "type": "event"
    },
    {
      "anonymous": false,
      "inputs": [
        {
          "indexed": false,
          "name": "checkid",
          "type": "uint256"
        },
        {
          "indexed": false,
          "name": "bid_id",
          "type": "uint256"
        },
        {
          "indexed": false,
          "name": "name",
          "type": "string"
        },
        {
          "indexed": false,
          "name": "message",
          "type": "string"
        },
        {
          "indexed": false,
          "name": "time",
          "type": "uint256"
        },
        {
          "indexed": false,
          "name": "price",
          "type": "uint256"
        },
        {
          "indexed": false,
          "name": "bidder",
          "type": "address"
        }
      ],
      "name": "bidCreated",
      "type": "event"
    },
    {
      "anonymous": false,
      "inputs": [
        {
          "indexed": false,
          "name": "bid_id",
          "type": "uint256"
        },
        {
          "indexed": false,
          "name": "name",
          "type": "string"
        },
        {
          "indexed": false,
          "name": "message",
          "type": "string"
        },
        {
          "indexed": false,
          "name": "time",
          "type": "uint256"
        },
        {
          "indexed": false,
          "name": "price",
          "type": "uint256"
        },
        {
          "indexed": false,
          "name": "bidder",
          "type": "address"
        }
      ],
      "name": "bidPurchased",
      "type": "event"
    },
    {
      "constant": false,
      "inputs": [
        {
          "name": "_name",
          "type": "string"
        },
        {
          "name": "_des",
          "type": "string"
        }
      ],
      "name": "createWork",
      "outputs": [],
      "payable": false,
      "stateMutability": "nonpayable",
      "type": "function"
    },
    {
      "constant": false,
      "inputs": [
        {
          "name": "_checkid",
          "type": "uint256"
        },
        {
          "name": "_name",
          "type": "string"
        },
        {
          "name": "_message",
          "type": "string"
        },
        {
          "name": "_time",
          "type": "uint256"
        },
        {
          "name": "_price",
          "type": "uint256"
        }
      ],
      "name": "createBid",
      "outputs": [],
      "payable": false,
      "stateMutability": "nonpayable",
      "type": "function"
    },
    {
      "constant": false,
      "inputs": [
        {
          "name": "_id",
          "type": "uint256"
        }
      ],
      "name": "purchaseBid",
      "outputs": [],
      "payable": true,
      "stateMutability": "payable",
      "type": "function"
    }
  ],
  "bytecode": "0x6080604052600080556000600155600060025534801561001e57600080fd5b50611b5c8061002e6000396000f3fe6080604052600436106100865760003560e01c80639e88b778116100595780639e88b77814610511578063aac4767914610670578063b40a56271461069b578063c66e1dd5146106c6578063fe4731081461082b57610086565b80633343fa421461008b5780634423c5f1146100b65780636a7ed00814610225578063881d8a40146103a2575b600080fd5b34801561009757600080fd5b506100a0610859565b6040518082815260200191505060405180910390f35b3480156100c257600080fd5b506100ef600480360360208110156100d957600080fd5b810190808035906020019092919050505061085f565b6040518088815260200187815260200180602001806020018681526020018581526020018473ffffffffffffffffffffffffffffffffffffffff1673ffffffffffffffffffffffffffffffffffffffff168152602001838103835288818151815260200191508051906020019080838360005b8381101561017d578082015181840152602081019050610162565b50505050905090810190601f1680156101aa5780820380516001836020036101000a031916815260200191505b50838103825287818151815260200191508051906020019080838360005b838110156101e35780820151818401526020810190506101c8565b50505050905090810190601f1680156102105780820380516001836020036101000a031916815260200191505b50995050505050505050505060405180910390f35b34801561023157600080fd5b506103a0600480360360a081101561024857600080fd5b81019080803590602001909291908035906020019064010000000081111561026f57600080fd5b82018360208201111561028157600080fd5b803590602001918460018302840111640100000000831117156102a357600080fd5b91908080601f016020809104026020016040519081016040528093929190818152602001838380828437600081840152601f19601f8201169050808301925050505050505091929192908035906020019064010000000081111561030657600080fd5b82018360208201111561031857600080fd5b8035906020019184600183028401116401000000008311171561033a57600080fd5b91908080601f016020809104026020016040519081016040528093929190818152602001838380828437600081840152601f19601f82011690508083019250505050505050919291929080359060200190929190803590602001909291905050506109f1565b005b3480156103ae57600080fd5b506103db600480360360208110156103c557600080fd5b8101908080359060200190929190505050610c75565b6040518088815260200187815260200180602001806020018681526020018581526020018473ffffffffffffffffffffffffffffffffffffffff1673ffffffffffffffffffffffffffffffffffffffff168152602001838103835288818151815260200191508051906020019080838360005b8381101561046957808201518184015260208101905061044e565b50505050905090810190601f1680156104965780820380516001836020036101000a031916815260200191505b50838103825287818151815260200191508051906020019080838360005b838110156104cf5780820151818401526020810190506104b4565b50505050905090810190601f1680156104fc5780820380516001836020036101000a031916815260200191505b50995050505050505050505060405180910390f35b34801561051d57600080fd5b5061066e6004803603604081101561053457600080fd5b810190808035906020019064010000000081111561055157600080fd5b82018360208201111561056357600080fd5b8035906020019184600183028401116401000000008311171561058557600080fd5b91908080601f016020809104026020016040519081016040528093929190818152602001838380828437600081840152601f19601f820116905080830192505050505050509192919290803590602001906401000000008111156105e857600080fd5b8201836020820111156105fa57600080fd5b8035906020019184600183028401116401000000008311171561061c57600080fd5b91908080601f016020809104026020016040519081016040528093929190818152602001838380828437600081840152601f19601f820116905080830192505050505050509192919290505050610e07565b005b34801561067c57600080fd5b50610685611074565b6040518082815260200191505060405180910390f35b3480156106a757600080fd5b506106b061107a565b6040518082815260200191505060405180910390f35b3480156106d257600080fd5b506106ff600480360360208110156106e957600080fd5b8101908080359060200190929190505050611080565b6040518086815260200180602001806020018573ffffffffffffffffffffffffffffffffffffffff1673ffffffffffffffffffffffffffffffffffffffff16815260200184151515158152602001838103835287818151815260200191508051906020019080838360005b8381101561078557808201518184015260208101905061076a565b50505050905090810190601f1680156107b25780820380516001836020036101000a031916815260200191505b50838103825286818151815260200191508051906020019080838360005b838110156107eb5780820151818401526020810190506107d0565b50505050905090810190601f1680156108185780820380516001836020036101000a031916815260200191505b5097505050505050505060405180910390f35b6108576004803603602081101561084157600080fd5b8101908080359060200190929190505050611213565b005b60005481565b6004602052806000526040600020600091509050806000015490806001015490806002018054600181600116156101000203166002900480601f0160208091040260200160405190810160405280929190818152602001828054600181600116156101000203166002900480156109175780601f106108ec57610100808354040283529160200191610917565b820191906000526020600020905b8154815290600101906020018083116108fa57829003601f168201915b505050505090806003018054600181600116156101000203166002900480601f0160208091040260200160405190810160405280929190818152602001828054600181600116156101000203166002900480156109b55780601f1061098a576101008083540402835291602001916109b5565b820191906000526020600020905b81548152906001019060200180831161099857829003601f168201915b5050505050908060040154908060050154908060060160009054906101000a900473ffffffffffffffffffffffffffffffffffffffff16905087565b6040518060e0016040528086815260200160015481526020018581526020018481526020018381526020018281526020013373ffffffffffffffffffffffffffffffffffffffff1681525060046000600154815260200190815260200160002060008201518160000155602082015181600101556040820151816002019080519060200190610a819291906119f1565b506060820151816003019080519060200190610a9e9291906119f1565b506080820151816004015560a0820151816005015560c08201518160060160006101000a81548173ffffffffffffffffffffffffffffffffffffffff021916908373ffffffffffffffffffffffffffffffffffffffff1602179055509050506001600081548092919060010191905055507f8c37ca03a0366bc84479cd751b94a146fb7374c4abf8854b6119483cf6f2cd2f8560015486868686336040518088815260200187815260200180602001806020018681526020018581526020018473ffffffffffffffffffffffffffffffffffffffff1673ffffffffffffffffffffffffffffffffffffffff168152602001838103835288818151815260200191508051906020019080838360005b83811015610bc7578082015181840152602081019050610bac565b50505050905090810190601f168015610bf45780820380516001836020036101000a031916815260200191505b50838103825287818151815260200191508051906020019080838360005b83811015610c2d578082015181840152602081019050610c12565b50505050905090810190601f168015610c5a5780820380516001836020036101000a031916815260200191505b50995050505050505050505060405180910390a15050505050565b6005602052806000526040600020600091509050806000015490806001015490806002018054600181600116156101000203166002900480601f016020809104026020016040519081016040528092919081815260200182805460018160011615610100020316600290048015610d2d5780601f10610d0257610100808354040283529160200191610d2d565b820191906000526020600020905b815481529060010190602001808311610d1057829003601f168201915b505050505090806003018054600181600116156101000203166002900480601f016020809104026020016040519081016040528092919081815260200182805460018160011615610100020316600290048015610dcb5780601f10610da057610100808354040283529160200191610dcb565b820191906000526020600020905b815481529060010190602001808311610dae57829003601f168201915b5050505050908060040154908060050154908060060160009054906101000a900473ffffffffffffffffffffffffffffffffffffffff16905087565b6040518060a0016040528060005481526020018381526020018281526020013373ffffffffffffffffffffffffffffffffffffffff168152602001600015158152506003600080548152602001908152602001600020600082015181600001556020820151816001019080519060200190610e839291906119f1565b506040820151816002019080519060200190610ea09291906119f1565b5060608201518160030160006101000a81548173ffffffffffffffffffffffffffffffffffffffff021916908373ffffffffffffffffffffffffffffffffffffffff16021790555060808201518160030160146101000a81548160ff02191690831515021790555090505060008081548092919060010191905055507f62e0635833c7020d8122ef6c6be55dd6e3f01407d36158dd38bfa8168f2016d560005483833360006040518086815260200180602001806020018573ffffffffffffffffffffffffffffffffffffffff1673ffffffffffffffffffffffffffffffffffffffff16815260200184151515158152602001838103835287818151815260200191508051906020019080838360005b83811015610fcb578082015181840152602081019050610fb0565b50505050905090810190601f168015610ff85780820380516001836020036101000a031916815260200191505b50838103825286818151815260200191508051906020019080838360005b83811015611031578082015181840152602081019050611016565b50505050905090810190601f16801561105e5780820380516001836020036101000a031916815260200191505b5097505050505050505060405180910390a15050565b60025481565b60015481565b6003602052806000526040600020600091509050806000015490806001018054600181600116156101000203166002900480601f0160208091040260200160405190810160405280929190818152602001828054600181600116156101000203166002900480156111325780601f1061110757610100808354040283529160200191611132565b820191906000526020600020905b81548152906001019060200180831161111557829003601f168201915b505050505090806002018054600181600116156101000203166002900480601f0160208091040260200160405190810160405280929190818152602001828054600181600116156101000203166002900480156111d05780601f106111a5576101008083540402835291602001916111d0565b820191906000526020600020905b8154815290600101906020018083116111b357829003601f168201915b5050505050908060030160009054906101000a900473ffffffffffffffffffffffffffffffffffffffff16908060030160149054906101000a900460ff16905085565b61121b611a71565b600460008381526020019081526020016000206040518060e00160405290816000820154815260200160018201548152602001600282018054600181600116156101000203166002900480601f0160208091040260200160405190810160405280929190818152602001828054600181600116156101000203166002900480156112e65780601f106112bb576101008083540402835291602001916112e6565b820191906000526020600020905b8154815290600101906020018083116112c957829003601f168201915b50505050508152602001600382018054600181600116156101000203166002900480601f0160208091040260200160405190810160405280929190818152602001828054600181600116156101000203166002900480156113885780601f1061135d57610100808354040283529160200191611388565b820191906000526020600020905b81548152906001019060200180831161136b57829003601f168201915b5050505050815260200160048201548152602001600582015481526020016006820160009054906101000a900473ffffffffffffffffffffffffffffffffffffffff1673ffffffffffffffffffffffffffffffffffffffff1673ffffffffffffffffffffffffffffffffffffffff1681525050905060008160c0015190506000826020015111801561141f57506001548260200151105b61142857600080fd5b8160a0015134101561143957600080fd5b60008260000151905061144a611ac4565b600360008381526020019081526020016000206040518060a001604052908160008201548152602001600182018054600181600116156101000203166002900480601f01602080910402602001604051908101604052809291908181526020018280546001816001161561010002031660029004801561150b5780601f106114e05761010080835404028352916020019161150b565b820191906000526020600020905b8154815290600101906020018083116114ee57829003601f168201915b50505050508152602001600282018054600181600116156101000203166002900480601f0160208091040260200160405190810160405280929190818152602001828054600181600116156101000203166002900480156115ad5780601f10611582576101008083540402835291602001916115ad565b820191906000526020600020905b81548152906001019060200180831161159057829003601f168201915b505050505081526020016003820160009054906101000a900473ffffffffffffffffffffffffffffffffffffffff1673ffffffffffffffffffffffffffffffffffffffff1673ffffffffffffffffffffffffffffffffffffffff1681526020016003820160149054906101000a900460ff161515151581525050905080608001511561163857600080fd5b3373ffffffffffffffffffffffffffffffffffffffff168373ffffffffffffffffffffffffffffffffffffffff16141561167157600080fd5b338460c0019073ffffffffffffffffffffffffffffffffffffffff16908173ffffffffffffffffffffffffffffffffffffffff168152505060018160800190151590811515815250508360046000878152602001908152602001600020600082015181600001556020820151816001015560408201518160020190805190602001906116fe9291906119f1565b50606082015181600301908051906020019061171b9291906119f1565b506080820151816004015560a0820151816005015560c08201518160060160006101000a81548173ffffffffffffffffffffffffffffffffffffffff021916908373ffffffffffffffffffffffffffffffffffffffff16021790555090505080600360008481526020019081526020016000206000820151816000015560208201518160010190805190602001906117b49291906119f1565b5060408201518160020190805190602001906117d19291906119f1565b5060608201518160030160006101000a81548173ffffffffffffffffffffffffffffffffffffffff021916908373ffffffffffffffffffffffffffffffffffffffff16021790555060808201518160030160146101000a81548160ff0219169083151502179055509050508273ffffffffffffffffffffffffffffffffffffffff166108fc349081150290604051600060405180830381858888f19350505050158015611882573d6000803e3d6000fd5b507f1ae9867b6671e9200deb966cd052dcf71a924ddcb7fb1380e42ac4fb076ad0b46001548560400151866060015187608001518860a00151336040518087815260200180602001806020018681526020018581526020018473ffffffffffffffffffffffffffffffffffffffff1673ffffffffffffffffffffffffffffffffffffffff168152602001838103835288818151815260200191508051906020019080838360005b83811015611944578082015181840152602081019050611929565b50505050905090810190601f1680156119715780820380516001836020036101000a031916815260200191505b50838103825287818151815260200191508051906020019080838360005b838110156119aa57808201518184015260208101905061198f565b50505050905090810190601f1680156119d75780820380516001836020036101000a031916815260200191505b509850505050505050505060405180910390a15050505050565b828054600181600116156101000203166002900490600052602060002090601f016020900481019282601f10611a3257805160ff1916838001178555611a60565b82800160010185558215611a60579182015b82811115611a5f578251825591602001919060010190611a44565b5b509050611a6d9190611b0b565b5090565b6040518060e00160405280600081526020016000815260200160608152602001606081526020016000815260200160008152602001600073ffffffffffffffffffffffffffffffffffffffff1681525090565b6040518060a00160405280600081526020016060815260200160608152602001600073ffffffffffffffffffffffffffffffffffffffff1681526020016000151581525090565b611b2d91905b80821115611b29576000816000905550600101611b11565b5090565b9056fea165627a7a723058204a7f9d031e2b1968f3a49ec8b0f6ec0aaec248742f69775b5955d2ff0d04ae2a0029",
  "source": "pragma solidity ^0.5.1;\ncontract freelancer{\n\n    struct work{\n        uint id;\n        string name;\n        string des;\n        address payable owner;\n        bool purchased;\n    }\n\n    struct bid{\n        uint checkid;\n        uint bid_id;\n        string name;\n        string message;\n        uint time;\n        uint price;\n        address payable bidder;\n    }\n\n    \n    uint public workCount=0;\n    uint public bidCount=0;\n    uint public linkCount=0;\n    \n    mapping (uint=>work) public works;\n    mapping (uint=>bid) public bids;\n    mapping (uint=>bid) public links;\n    \n    \n    event workCreated(\n        uint id,\n        string name,\n        string des,\n        address payable owner,\n        bool purchased\n    );\n\n    event bidCreated(\n        uint checkid,\n        uint bid_id,\n        string name,\n        string message,\n        uint time,\n        uint price,\n        address payable bidder\n\n        );\n    event bidPurchased(\n        uint bid_id,\n        string name,\n        string message,\n        uint time,\n        uint price,\n        address payable bidder\n        );\n    \n    function createWork(string memory _name,string memory _des)public{\n        works[workCount]=work(workCount,_name,_des,msg.sender,false);\n        workCount++;\n        emit workCreated(workCount,_name,_des,msg.sender,false);\n    }\n\n    function createBid( uint _checkid,string memory _name, string memory _message, uint _time, uint _price) public{\n        bids[bidCount]=bid(_checkid,bidCount,_name,_message,_time,_price, msg.sender);\n        bidCount++;\n        //links[_checkid]=bid(bidCount,_name,_message,_time,_price, msg.sender);\n        //linkCount++;\n        emit bidCreated(_checkid,bidCount,_name,_message,_time,_price, msg.sender);\n        \n    }\n\n     function purchaseBid(uint _id) public payable  {\n        //fetch the bid\n        bid memory _bid = bids[_id];\n        //fetch the owner \n        address payable _seller =_bid.bidder;\n        // Make sure the product id is valid\n        require (_bid.bid_id >0 && _bid.bid_id< bidCount);\n        // enough ether\n        require (msg.value >= _bid.price);\n        \n        //fetch the work\n        uint  work_id =_bid.checkid;\n        work memory _work = works[work_id];\n         //work is not purchased\n         require (!_work.purchased);\n\n         //seller is not buyer\n         require (_seller!=msg.sender);\n         \n         \n        //transfer ownership to the buyer\n        _bid.bidder= msg.sender;\n         //mark as purchased\n         _work.purchased = true;\n         //update the product\n         bids[_id]=_bid;\n         works[work_id]=_work;\n         //pay the seller through ether\n         address(_seller).transfer(msg.value);\n         //trigger an event\n\n         emit bidPurchased(bidCount,_bid.name,_bid.message,_bid.time,_bid.price, msg.sender);\n\n    }    \n\n}",
  "sourcePath": "/home/neha/Desktop/trying/form1/client/src/contracts/freelancer.sol",
  "compiler": {
    "name": "solc",
    "version": "0.5.8+commit.23d335f2.Emscripten.clang"
  },
  "schemaVersion": "3.0.11",
  "updatedAt": "2019-09-15T19:58:00.644Z",
  "devdoc": {
    "methods": {}
  },
  "userdoc": {
    "methods": {}
  }
}